{
  "contractName": "PensionScheme",
  "abi": [
    {
      "inputs": [],
      "stateMutability": "nonpayable",
      "type": "constructor"
    },
    {
      "anonymous": false,
      "inputs": [
        {
          "indexed": true,
          "internalType": "uint256",
          "name": "pensionID",
          "type": "uint256"
        },
        {
          "indexed": false,
          "internalType": "address",
          "name": "sender",
          "type": "address"
        },
        {
          "indexed": false,
          "internalType": "uint256",
          "name": "amount",
          "type": "uint256"
        },
        {
          "indexed": false,
          "internalType": "uint256",
          "name": "contributions",
          "type": "uint256"
        }
      ],
      "name": "Deposit",
      "type": "event"
    },
    {
      "anonymous": false,
      "inputs": [
        {
          "indexed": true,
          "internalType": "uint256",
          "name": "pensionID",
          "type": "uint256"
        },
        {
          "indexed": false,
          "internalType": "address",
          "name": "beneficiary",
          "type": "address"
        },
        {
          "indexed": false,
          "internalType": "address",
          "name": "sponsor",
          "type": "address"
        }
      ],
      "name": "Register",
      "type": "event"
    },
    {
      "anonymous": false,
      "inputs": [
        {
          "indexed": true,
          "internalType": "uint256",
          "name": "benefciaryID",
          "type": "uint256"
        },
        {
          "indexed": false,
          "internalType": "uint256",
          "name": "amount",
          "type": "uint256"
        }
      ],
      "name": "Withdraw",
      "type": "event"
    },
    {
      "anonymous": false,
      "inputs": [
        {
          "indexed": false,
          "internalType": "uint256",
          "name": "pensionID",
          "type": "uint256"
        }
      ],
      "name": "WithdrawalTypeChanged",
      "type": "event"
    },
    {
      "inputs": [
        {
          "internalType": "address payable",
          "name": "_beneficiary",
          "type": "address"
        },
        {
          "internalType": "address",
          "name": "_owner",
          "type": "address"
        }
      ],
      "name": "deployPFA",
      "outputs": [
        {
          "internalType": "address payable",
          "name": "",
          "type": "address"
        }
      ],
      "stateMutability": "nonpayable",
      "type": "function"
    },
    {
      "inputs": [],
      "name": "pensionID",
      "outputs": [
        {
          "internalType": "uint256",
          "name": "",
          "type": "uint256"
        }
      ],
      "stateMutability": "view",
      "type": "function",
      "constant": true
    },
    {
      "inputs": [
        {
          "internalType": "address payable",
          "name": "_beneficiary",
          "type": "address"
        },
        {
          "internalType": "uint256",
          "name": "rTime",
          "type": "uint256"
        }
      ],
      "name": "register",
      "outputs": [
        {
          "internalType": "uint256",
          "name": "",
          "type": "uint256"
        }
      ],
      "stateMutability": "payable",
      "type": "function",
      "payable": true
    },
    {
      "inputs": [
        {
          "internalType": "uint256",
          "name": "id",
          "type": "uint256"
        }
      ],
      "name": "deposit",
      "outputs": [
        {
          "internalType": "uint256",
          "name": "",
          "type": "uint256"
        }
      ],
      "stateMutability": "payable",
      "type": "function",
      "payable": true
    },
    {
      "inputs": [
        {
          "internalType": "uint256",
          "name": "id",
          "type": "uint256"
        }
      ],
      "name": "changeWithdrawalType",
      "outputs": [],
      "stateMutability": "nonpayable",
      "type": "function"
    },
    {
      "inputs": [
        {
          "internalType": "uint256",
          "name": "id",
          "type": "uint256"
        }
      ],
      "name": "withdrawPension",
      "outputs": [],
      "stateMutability": "payable",
      "type": "function",
      "payable": true
    },
    {
      "inputs": [
        {
          "internalType": "uint256",
          "name": "id",
          "type": "uint256"
        },
        {
          "internalType": "address",
          "name": "newSponsor",
          "type": "address"
        }
      ],
      "name": "changeSponsor",
      "outputs": [],
      "stateMutability": "nonpayable",
      "type": "function"
    },
    {
      "inputs": [
        {
          "internalType": "uint256",
          "name": "id",
          "type": "uint256"
        }
      ],
      "name": "balanceOf",
      "outputs": [
        {
          "internalType": "uint256",
          "name": "a",
          "type": "uint256"
        },
        {
          "internalType": "uint256",
          "name": "b",
          "type": "uint256"
        },
        {
          "internalType": "uint256",
          "name": "c",
          "type": "uint256"
        }
      ],
      "stateMutability": "view",
      "type": "function",
      "constant": true
    },
    {
      "inputs": [
        {
          "internalType": "uint256",
          "name": "id",
          "type": "uint256"
        }
      ],
      "name": "getPFA",
      "outputs": [
        {
          "internalType": "address",
          "name": "",
          "type": "address"
        }
      ],
      "stateMutability": "view",
      "type": "function",
      "constant": true
    },
    {
      "inputs": [
        {
          "internalType": "uint256",
          "name": "id",
          "type": "uint256"
        }
      ],
      "name": "checkRetired",
      "outputs": [
        {
          "internalType": "bool",
          "name": "",
          "type": "bool"
        }
      ],
      "stateMutability": "view",
      "type": "function",
      "constant": true
    },
    {
      "inputs": [
        {
          "internalType": "uint256",
          "name": "id",
          "type": "uint256"
        }
      ],
      "name": "getPensionInfo",
      "outputs": [
        {
          "internalType": "address",
          "name": "beneficiary",
          "type": "address"
        },
        {
          "internalType": "address",
          "name": "sponsor",
          "type": "address"
        },
        {
          "internalType": "uint256",
          "name": "rTime",
          "type": "uint256"
        },
        {
          "internalType": "uint256",
          "name": "totalContribution",
          "type": "uint256"
        },
        {
          "internalType": "bool",
          "name": "exist",
          "type": "bool"
        }
      ],
      "stateMutability": "view",
      "type": "function",
      "constant": true
    },
    {
      "inputs": [
        {
          "internalType": "uint256",
          "name": "id",
          "type": "uint256"
        }
      ],
      "name": "getCount",
      "outputs": [
        {
          "internalType": "uint256",
          "name": "",
          "type": "uint256"
        }
      ],
      "stateMutability": "view",
      "type": "function",
      "constant": true
    },
    {
      "inputs": [],
      "name": "recieve",
      "outputs": [],
      "stateMutability": "nonpayable",
      "type": "function"
    }
  ],
  "bytecode": "0x608060405234801561001057600080fd5b50600180819055506107e46003819055506137c0806100306000396000f3fe6080604052600436106100c25760003560e01c8063c23539181161007f578063d0f2bf5611610059578063d0f2bf561461031d578063df38f68e146103ce578063e89aba7e14610421578063fe0b8fec1461049c576100c2565b8063c235391814610275578063c2f6520c146102c4578063c950d598146102f2576100c2565b80636d705ebb146100c7578063916bd2ec146101295780639cc7f70814610184578063a51e491d146101e1578063a9e10bf21461021c578063b6b55f2514610233575b600080fd5b610113600480360360408110156100dd57600080fd5b81019080803573ffffffffffffffffffffffffffffffffffffffff16906020019092919080359060200190929190505050610563565b6040518082815260200191505060405180910390f35b34801561013557600080fd5b506101826004803603604081101561014c57600080fd5b8101908080359060200190929190803573ffffffffffffffffffffffffffffffffffffffff169060200190929190505050610a72565b005b34801561019057600080fd5b506101bd600480360360208110156101a757600080fd5b8101908080359060200190929190505050610c43565b60405180848152602001838152602001828152602001935050505060405180910390f35b3480156101ed57600080fd5b5061021a6004803603602081101561020457600080fd5b8101908080359060200190929190505050610c9a565b005b34801561022857600080fd5b50610231610ea8565b005b61025f6004803603602081101561024957600080fd5b8101908080359060200190929190505050610eaa565b6040518082815260200191505060405180910390f35b34801561028157600080fd5b506102ae6004803603602081101561029857600080fd5b8101908080359060200190929190505050611686565b6040518082815260200191505060405180910390f35b6102f0600480360360208110156102da57600080fd5b8101908080359060200190929190505050611746565b005b3480156102fe57600080fd5b5061030761204e565b6040518082815260200191505060405180910390f35b34801561032957600080fd5b5061038c6004803603604081101561034057600080fd5b81019080803573ffffffffffffffffffffffffffffffffffffffff169060200190929190803573ffffffffffffffffffffffffffffffffffffffff169060200190929190505050612054565b604051808273ffffffffffffffffffffffffffffffffffffffff1673ffffffffffffffffffffffffffffffffffffffff16815260200191505060405180910390f35b3480156103da57600080fd5b50610407600480360360208110156103f157600080fd5b810190808035906020019092919050505061215a565b604051808215151515815260200191505060405180910390f35b34801561042d57600080fd5b5061045a6004803603602081101561044457600080fd5b81019080803590602001909291905050506123a5565b604051808273ffffffffffffffffffffffffffffffffffffffff1673ffffffffffffffffffffffffffffffffffffffff16815260200191505060405180910390f35b3480156104a857600080fd5b506104d5600480360360208110156104bf57600080fd5b8101908080359060200190929190505050612484565b604051808673ffffffffffffffffffffffffffffffffffffffff1673ffffffffffffffffffffffffffffffffffffffff1681526020018573ffffffffffffffffffffffffffffffffffffffff1673ffffffffffffffffffffffffffffffffffffffff168152602001848152602001838152602001821515151581526020019550505050505060405180910390f35b60008073ffffffffffffffffffffffffffffffffffffffff168373ffffffffffffffffffffffffffffffffffffffff161415610607576040517f08c379a000000000000000000000000000000000000000000000000000000000815260040180806020018281038252600c8152602001807f494e56414c49445f41444452000000000000000000000000000000000000000081525060200191505060405180910390fd5b3073ffffffffffffffffffffffffffffffffffffffff168373ffffffffffffffffffffffffffffffffffffffff1614156106a9576040517f08c379a000000000000000000000000000000000000000000000000000000000815260040180806020018281038252600c8152602001807f494e56414c49445f41444452000000000000000000000000000000000000000081525060200191505060405180910390fd5b3373ffffffffffffffffffffffffffffffffffffffff168373ffffffffffffffffffffffffffffffffffffffff16141561074b576040517f08c379a000000000000000000000000000000000000000000000000000000000815260040180806020018281038252600d8152602001807f53454c465f52454749535445520000000000000000000000000000000000000081525060200191505060405180910390fd5b428210156107c1576040517f08c379a000000000000000000000000000000000000000000000000000000000815260040180806020018281038252600d8152602001807f5254494d455f494e56414c49440000000000000000000000000000000000000081525060200191505060405180910390fd5b60006107cd8430612054565b9050600060035490506040518061012001604052808673ffffffffffffffffffffffffffffffffffffffff1681526020013373ffffffffffffffffffffffffffffffffffffffff1681526020018373ffffffffffffffffffffffffffffffffffffffff168152602001858152602001600081526020016000815260200160008152602001600115158152602001600115158152506002600083815260200190815260200160002060008201518160000160006101000a81548173ffffffffffffffffffffffffffffffffffffffff021916908373ffffffffffffffffffffffffffffffffffffffff16021790555060208201518160010160006101000a81548173ffffffffffffffffffffffffffffffffffffffff021916908373ffffffffffffffffffffffffffffffffffffffff16021790555060408201518160020160006101000a81548173ffffffffffffffffffffffffffffffffffffffff021916908373ffffffffffffffffffffffffffffffffffffffff160217905550606082015181600301556080820151816004015560a0820151816005015560c0820151816006015560e08201518160070160006101000a81548160ff0219169083151502179055506101008201518160070160016101000a81548160ff021916908315150217905550905050807f803a62ea26f5f84358caa46c0e7abbc1038de73f8535a68930dfd3fcb03a56f98633604051808373ffffffffffffffffffffffffffffffffffffffff1673ffffffffffffffffffffffffffffffffffffffff1681526020018273ffffffffffffffffffffffffffffffffffffffff1673ffffffffffffffffffffffffffffffffffffffff1681526020019250505060405180910390a2610a6160018261256e90919063ffffffff16565b600381905550809250505092915050565b81600115156002600083815260200190815260200160002060070160019054906101000a900460ff16151514610b10576040517f08c379a00000000000000000000000000000000000000000000000000000000081526004018080602001828103825260118152602001807f47484f53545f42454e454649434941525900000000000000000000000000000081525060200191505060405180910390fd5b826002600082815260200190815260200160002060000160009054906101000a900473ffffffffffffffffffffffffffffffffffffffff1673ffffffffffffffffffffffffffffffffffffffff163373ffffffffffffffffffffffffffffffffffffffff1614610be8576040517f08c379a00000000000000000000000000000000000000000000000000000000081526004018080602001828103825260198152602001807f43414c4c45525f49535f4e4f545f42454e45464943494152590000000000000081525060200191505060405180910390fd5b826002600086815260200190815260200160002060010160006101000a81548173ffffffffffffffffffffffffffffffffffffffff021916908373ffffffffffffffffffffffffffffffffffffffff16021790555050505050565b60008060006002600085815260200190815260200160002060040154925060026000858152602001908152602001600020600501549150600260008581526020019081526020016000206006015490509193909250565b80600115156002600083815260200190815260200160002060070160019054906101000a900460ff16151514610d38576040517f08c379a00000000000000000000000000000000000000000000000000000000081526004018080602001828103825260118152602001807f47484f53545f42454e454649434941525900000000000000000000000000000081525060200191505060405180910390fd5b816002600082815260200190815260200160002060000160009054906101000a900473ffffffffffffffffffffffffffffffffffffffff1673ffffffffffffffffffffffffffffffffffffffff163373ffffffffffffffffffffffffffffffffffffffff1614610e10576040517f08c379a00000000000000000000000000000000000000000000000000000000081526004018080602001828103825260198152602001807f43414c4c45525f49535f4e4f545f42454e45464943494152590000000000000081525060200191505060405180910390fd5b6002600084815260200190815260200160002060070160009054906101000a900460ff16610e3d57600080fd5b60006002600085815260200190815260200160002060070160006101000a81548160ff0219169083151502179055507f87d16633dc55f557655f7f7da1caf9737ebd0ec62800fd8b04e91ca1b357349d836040518082815260200191505060405180910390a1505050565b565b600081600115156002600083815260200190815260200160002060070160019054906101000a900460ff16151514610f4a576040517f08c379a00000000000000000000000000000000000000000000000000000000081526004018080602001828103825260118152602001807f47484f53545f42454e454649434941525900000000000000000000000000000081525060200191505060405180910390fd5b60003490506000811015610fc6576040517f08c379a000000000000000000000000000000000000000000000000000000000815260040180806020018281038252600b8152602001807f494e56414c49445f414d5400000000000000000000000000000000000000000081525060200191505060405180910390fd5b6002600085815260200190815260200160002060010160009054906101000a900473ffffffffffffffffffffffffffffffffffffffff1673ffffffffffffffffffffffffffffffffffffffff163373ffffffffffffffffffffffffffffffffffffffff16141561135a5760006002600086815260200190815260200160002060020160009054906101000a900473ffffffffffffffffffffffffffffffffffffffff1673ffffffffffffffffffffffffffffffffffffffff16826040516024016040516020818303038152906040527fe8b5e51f000000000000000000000000000000000000000000000000000000007bffffffffffffffffffffffffffffffffffffffffffffffffffffffff19166020820180517bffffffffffffffffffffffffffffffffffffffffffffffffffffffff83818316178352505050506040518082805190602001908083835b602083106111365780518252602082019150602081019050602083039250611113565b6001836020036101000a03801982511681845116808217855250505050505090500191505060006040518083038185875af1925050503d8060008114611198576040519150601f19603f3d011682016040523d82523d6000602084013e61119d565b606091505b5050905080611214576040517f08c379a000000000000000000000000000000000000000000000000000000000815260040180806020018281038252600e8152602001807f4445504f5349545f4641494c454400000000000000000000000000000000000081525060200191505060405180910390fd5b61123d82600260008881526020019081526020016000206004015461256e90919063ffffffff16565b60026000878152602001908152602001600020600401819055506112966002600087815260200190815260200160002060050154600260008881526020019081526020016000206004015461256e90919063ffffffff16565b6002600087815260200190815260200160002060060181905550847fd36a2f67d06d285786f61a32b052b9ace6b0b7abef5177b54358abdc83a0b69b3384600260008a815260200190815260200160002060060154604051808473ffffffffffffffffffffffffffffffffffffffff1673ffffffffffffffffffffffffffffffffffffffff168152602001838152602001828152602001935050505060405180910390a2600260008681526020019081526020016000206006015493505050611680565b60006002600086815260200190815260200160002060020160009054906101000a900473ffffffffffffffffffffffffffffffffffffffff1673ffffffffffffffffffffffffffffffffffffffff16826040516024016040516020818303038152906040527fe8b5e51f000000000000000000000000000000000000000000000000000000007bffffffffffffffffffffffffffffffffffffffffffffffffffffffff19166020820180517bffffffffffffffffffffffffffffffffffffffffffffffffffffffff83818316178352505050506040518082805190602001908083835b60208310611460578051825260208201915060208101905060208303925061143d565b6001836020036101000a03801982511681845116808217855250505050505090500191505060006040518083038185875af1925050503d80600081146114c2576040519150601f19603f3d011682016040523d82523d6000602084013e6114c7565b606091505b505090508061153e576040517f08c379a000000000000000000000000000000000000000000000000000000000815260040180806020018281038252600e8152602001807f4445504f5349545f4641494c454400000000000000000000000000000000000081525060200191505060405180910390fd5b61156782600260008881526020019081526020016000206005015461256e90919063ffffffff16565b60026000878152602001908152602001600020600501819055506115c06002600087815260200190815260200160002060050154600260008881526020019081526020016000206004015461256e90919063ffffffff16565b6002600087815260200190815260200160002060060181905550847fd36a2f67d06d285786f61a32b052b9ace6b0b7abef5177b54358abdc83a0b69b3384600260008a815260200190815260200160002060060154604051808473ffffffffffffffffffffffffffffffffffffffff1673ffffffffffffffffffffffffffffffffffffffff168152602001838152602001828152602001935050505060405180910390a26002600086815260200190815260200160002060060154935050505b50919050565b60006002600083815260200190815260200160002060020160009054906101000a900473ffffffffffffffffffffffffffffffffffffffff1673ffffffffffffffffffffffffffffffffffffffff16638ada066e6040518163ffffffff1660e01b815260040160206040518083038186803b15801561170457600080fd5b505afa158015611718573d6000803e3d6000fd5b505050506040513d602081101561172e57600080fd5b81019080805190602001909291905050509050919050565b8060026000828152602001908152602001600020600301544210156117d3576040517f08c379a000000000000000000000000000000000000000000000000000000000815260040180806020018281038252600b8152602001807f4e4f545f5245544952454400000000000000000000000000000000000000000081525060200191505060405180910390fd5b816002600082815260200190815260200160002060000160009054906101000a900473ffffffffffffffffffffffffffffffffffffffff1673ffffffffffffffffffffffffffffffffffffffff163373ffffffffffffffffffffffffffffffffffffffff16146118ab576040517f08c379a00000000000000000000000000000000000000000000000000000000081526004018080602001828103825260198152602001807f43414c4c45525f49535f4e4f545f42454e45464943494152590000000000000081525060200191505060405180910390fd5b82600115156002600083815260200190815260200160002060070160019054906101000a900460ff16151514611949576040517f08c379a00000000000000000000000000000000000000000000000000000000081526004018080602001828103825260118152602001807f47484f53545f42454e454649434941525900000000000000000000000000000081525060200191505060405180910390fd5b600260015414156119c2576040517f08c379a000000000000000000000000000000000000000000000000000000000815260040180806020018281038252601f8152602001807f5265656e7472616e637947756172643a207265656e7472616e742063616c6c0081525060200191505060405180910390fd5b60026001819055506000600260008681526020019081526020016000206006015411611a56576040517f08c379a00000000000000000000000000000000000000000000000000000000081526004018080602001828103825260128152602001807f5a45524f5f434f4e545249425554494f4e53000000000000000000000000000081525060200191505060405180910390fd5b6002600085815260200190815260200160002060070160009054906101000a900460ff1615611d4f576017611a8a85611686565b1415611b645760026000858152602001908152602001600020600080820160006101000a81549073ffffffffffffffffffffffffffffffffffffffff02191690556001820160006101000a81549073ffffffffffffffffffffffffffffffffffffffff02191690556002820160006101000a81549073ffffffffffffffffffffffffffffffffffffffff021916905560038201600090556004820160009055600582016000905560068201600090556007820160006101000a81549060ff02191690556007820160016101000a81549060ff021916905550505b60006002600086815260200190815260200160002060020160009054906101000a900473ffffffffffffffffffffffffffffffffffffffff1673ffffffffffffffffffffffffffffffffffffffff1660006040516024016040516020818303038152906040527f6792b853000000000000000000000000000000000000000000000000000000007bffffffffffffffffffffffffffffffffffffffffffffffffffffffff19166020820180517bffffffffffffffffffffffffffffffffffffffffffffffffffffffff83818316178352505050506040518082805190602001908083835b60208310611c6b5780518252602082019150602081019050602083039250611c48565b6001836020036101000a03801982511681845116808217855250505050505090500191505060006040518083038185875af1925050503d8060008114611ccd576040519150601f19603f3d011682016040523d82523d6000602084013e611cd2565b606091505b5050905080611d49576040517f08c379a00000000000000000000000000000000000000000000000000000000081526004018080602001828103825260178152602001807f414e4e554954595f57495448445241575f4641494c454400000000000000000081525060200191505060405180910390fd5b50612009565b60006002600086815260200190815260200160002060020160009054906101000a900473ffffffffffffffffffffffffffffffffffffffff1673ffffffffffffffffffffffffffffffffffffffff1660006040516024016040516020818303038152906040527fc889ecf0000000000000000000000000000000000000000000000000000000007bffffffffffffffffffffffffffffffffffffffffffffffffffffffff19166020820180517bffffffffffffffffffffffffffffffffffffffffffffffffffffffff83818316178352505050506040518082805190602001908083835b60208310611e565780518252602082019150602081019050602083039250611e33565b6001836020036101000a03801982511681845116808217855250505050505090500191505060006040518083038185875af1925050503d8060008114611eb8576040519150601f19603f3d011682016040523d82523d6000602084013e611ebd565b606091505b5050905080611f34576040517f08c379a00000000000000000000000000000000000000000000000000000000081526004018080602001828103825260178152602001807f4c554d5053554d5f57495448445241575f4641494c454400000000000000000081525060200191505060405180910390fd5b60026000868152602001908152602001600020600080820160006101000a81549073ffffffffffffffffffffffffffffffffffffffff02191690556001820160006101000a81549073ffffffffffffffffffffffffffffffffffffffff02191690556002820160006101000a81549073ffffffffffffffffffffffffffffffffffffffff021916905560038201600090556004820160009055600582016000905560068201600090556007820160006101000a81549060ff02191690556007820160016101000a81549060ff02191690555050505b837f56ca301a9219608c91e7bcee90e083c19671d2cdcc96752c7af291cee5f9c8c8346040518082815260200191505060405180910390a26001808190555050505050565b60035481565b6000808383604051612065906125f6565b808373ffffffffffffffffffffffffffffffffffffffff1673ffffffffffffffffffffffffffffffffffffffff1681526020018273ffffffffffffffffffffffffffffffffffffffff1673ffffffffffffffffffffffffffffffffffffffff16815260200192505050604051809103906000f0801580156120ea573d6000803e3d6000fd5b5090506000819080600181540180825580915050600190039060005260206000200160009091909190916101000a81548173ffffffffffffffffffffffffffffffffffffffff021916908373ffffffffffffffffffffffffffffffffffffffff1602179055508091505092915050565b600081600115156002600083815260200190815260200160002060070160019054906101000a900460ff161515146121fa576040517f08c379a00000000000000000000000000000000000000000000000000000000081526004018080602001828103825260118152602001807f47484f53545f42454e454649434941525900000000000000000000000000000081525060200191505060405180910390fd5b612202612603565b60026000858152602001908152602001600020604051806101200160405290816000820160009054906101000a900473ffffffffffffffffffffffffffffffffffffffff1673ffffffffffffffffffffffffffffffffffffffff1673ffffffffffffffffffffffffffffffffffffffff1681526020016001820160009054906101000a900473ffffffffffffffffffffffffffffffffffffffff1673ffffffffffffffffffffffffffffffffffffffff1673ffffffffffffffffffffffffffffffffffffffff1681526020016002820160009054906101000a900473ffffffffffffffffffffffffffffffffffffffff1673ffffffffffffffffffffffffffffffffffffffff1673ffffffffffffffffffffffffffffffffffffffff168152602001600382015481526020016004820154815260200160058201548152602001600682015481526020016007820160009054906101000a900460ff161515151581526020016007820160019054906101000a900460ff1615151515815250509050806060015142111561239957600192505061239f565b60009250505b50919050565b600081600115156002600083815260200190815260200160002060070160019054906101000a900460ff16151514612445576040517f08c379a00000000000000000000000000000000000000000000000000000000081526004018080602001828103825260118152602001807f47484f53545f42454e454649434941525900000000000000000000000000000081525060200191505060405180910390fd5b6002600084815260200190815260200160002060020160009054906101000a900473ffffffffffffffffffffffffffffffffffffffff16915050919050565b60008060008060006002600087815260200190815260200160002060000160009054906101000a900473ffffffffffffffffffffffffffffffffffffffff1694506002600087815260200190815260200160002060010160009054906101000a900473ffffffffffffffffffffffffffffffffffffffff16935060026000878152602001908152602001600020600301549250600260008781526020019081526020016000206006015491506002600087815260200190815260200160002060070160019054906101000a900460ff16905084848484849450945094509450945091939590929450565b6000808284019050838110156125ec576040517f08c379a000000000000000000000000000000000000000000000000000000000815260040180806020018281038252601b8152602001807f536166654d6174683a206164646974696f6e206f766572666c6f77000000000081525060200191505060405180910390fd5b8091505092915050565b6110f58061269683390190565b604051806101200160405280600073ffffffffffffffffffffffffffffffffffffffff168152602001600073ffffffffffffffffffffffffffffffffffffffff168152602001600073ffffffffffffffffffffffffffffffffffffffff16815260200160008152602001600081526020016000815260200160008152602001600015158152602001600015158152509056fe608060405273be839b6d93e3ea47effcca1f27841c917a8794f3600260006101000a81548173ffffffffffffffffffffffffffffffffffffffff021916908373ffffffffffffffffffffffffffffffffffffffff160217905550600060035560006004556224ea00600555601760065534801561007b57600080fd5b506040516110f53803806110f58339818101604052604081101561009e57600080fd5b810190808051906020019092919080519060200190929190505050816000806101000a81548173ffffffffffffffffffffffffffffffffffffffff021916908373ffffffffffffffffffffffffffffffffffffffff16021790555080600160006101000a81548173ffffffffffffffffffffffffffffffffffffffff021916908373ffffffffffffffffffffffffffffffffffffffff1602179055505050610faa8061014b6000396000f3fe6080604052600436106100745760003560e01c80638ada066e1161004e5780638ada066e146100e4578063a9e10bf21461010f578063c889ecf014610126578063e8b5e51f1461013d57610075565b806312065fe01461007757806361bc221a146100a25780636792b853146100cd57610075565b5b005b34801561008357600080fd5b5061008c61015f565b6040518082815260200191505060405180910390f35b3480156100ae57600080fd5b506100b7610247565b6040518082815260200191505060405180910390f35b3480156100d957600080fd5b506100e261024d565b005b3480156100f057600080fd5b506100f9610644565b6040518082815260200191505060405180910390f35b34801561011b57600080fd5b5061012461064e565b005b34801561013257600080fd5b5061013b610650565b005b6101456108ce565b604051808215151515815260200191505060405180910390f35b600080600260009054906101000a900473ffffffffffffffffffffffffffffffffffffffff1673ffffffffffffffffffffffffffffffffffffffff16633af9e669306040518263ffffffff1660e01b8152600401808273ffffffffffffffffffffffffffffffffffffffff1673ffffffffffffffffffffffffffffffffffffffff168152602001915050602060405180830381600087803b15801561020357600080fd5b505af1158015610217573d6000803e3d6000fd5b505050506040513d602081101561022d57600080fd5b810190808051906020019092919050505090508091505090565b60035481565b3373ffffffffffffffffffffffffffffffffffffffff16600160009054906101000a900473ffffffffffffffffffffffffffffffffffffffff1673ffffffffffffffffffffffffffffffffffffffff1614610310576040517f08c379a000000000000000000000000000000000000000000000000000000000815260040180806020018281038252600e8152602001807f4e4f545f415554484f52495a454400000000000000000000000000000000000081525060200191505060405180910390fd5b6004544211610387576040517f08c379a000000000000000000000000000000000000000000000000000000000815260040180806020018281038252600f8152602001807f54494d454c4f434b5f414354495645000000000000000000000000000000000081525060200191505060405180910390fd5b600654600354111561039857600080fd5b60006103a261015f565b905060065460035414156104e8576000809054906101000a900473ffffffffffffffffffffffffffffffffffffffff1673ffffffffffffffffffffffffffffffffffffffff166108fc829081150290604051600060405180830381858888f19350505050158015610417573d6000803e3d6000fd5b507f89fe0d562004dd4951a2fc150e6cf008f9d263fb143ddc8717638104122e1b4a6000809054906101000a900473ffffffffffffffffffffffffffffffffffffffff1660035483604051808473ffffffffffffffffffffffffffffffffffffffff1673ffffffffffffffffffffffffffffffffffffffff168152602001838152602001828152602001935050505060405180910390a16000809054906101000a900473ffffffffffffffffffffffffffffffffffffffff1673ffffffffffffffffffffffffffffffffffffffff16ff5b6000610513610504600354600654610b8e90919063ffffffff16565b83610bd890919063ffffffff16565b905061051e81610c22565b506000809054906101000a900473ffffffffffffffffffffffffffffffffffffffff1673ffffffffffffffffffffffffffffffffffffffff166108fc829081150290604051600060405180830381858888f19350505050158015610586573d6000803e3d6000fd5b507f89fe0d562004dd4951a2fc150e6cf008f9d263fb143ddc8717638104122e1b4a6000809054906101000a900473ffffffffffffffffffffffffffffffffffffffff1660035483604051808473ffffffffffffffffffffffffffffffffffffffff1673ffffffffffffffffffffffffffffffffffffffff168152602001838152602001828152602001935050505060405180910390a15061063360055442610d4d90919063ffffffff16565b600481905550610641610dd5565b50565b6000600354905090565b565b3373ffffffffffffffffffffffffffffffffffffffff16600160009054906101000a900473ffffffffffffffffffffffffffffffffffffffff1673ffffffffffffffffffffffffffffffffffffffff1614610713576040517f08c379a000000000000000000000000000000000000000000000000000000000815260040180806020018281038252600e8152602001807f4e4f545f415554484f52495a454400000000000000000000000000000000000081525060200191505060405180910390fd5b600454421161078a576040517f08c379a000000000000000000000000000000000000000000000000000000000815260040180806020018281038252600f8152602001807f54494d454c4f434b5f414354495645000000000000000000000000000000000081525060200191505060405180910390fd5b600061079461015f565b905061079f81610c22565b506000809054906101000a900473ffffffffffffffffffffffffffffffffffffffff1673ffffffffffffffffffffffffffffffffffffffff166108fc829081150290604051600060405180830381858888f19350505050158015610807573d6000803e3d6000fd5b507fcc18a5aefb44b534dd97b9d1648ef3591afe29207e5e7cfb118903589d6b338f6000809054906101000a900473ffffffffffffffffffffffffffffffffffffffff1682604051808373ffffffffffffffffffffffffffffffffffffffff1673ffffffffffffffffffffffffffffffffffffffff1681526020018281526020019250505060405180910390a16000809054906101000a900473ffffffffffffffffffffffffffffffffffffffff1673ffffffffffffffffffffffffffffffffffffffff16ff5b60003373ffffffffffffffffffffffffffffffffffffffff16600160009054906101000a900473ffffffffffffffffffffffffffffffffffffffff1673ffffffffffffffffffffffffffffffffffffffff1614610993576040517f08c379a000000000000000000000000000000000000000000000000000000000815260040180806020018281038252600e8152602001807f4e4f545f415554484f52495a454400000000000000000000000000000000000081525060200191505060405180910390fd5b6000600260009054906101000a900473ffffffffffffffffffffffffffffffffffffffff1673ffffffffffffffffffffffffffffffffffffffff16346040516024016040516020818303038152906040527f1249c58b000000000000000000000000000000000000000000000000000000007bffffffffffffffffffffffffffffffffffffffffffffffffffffffff19166020820180517bffffffffffffffffffffffffffffffffffffffffffffffffffffffff83818316178352505050506040518082805190602001908083835b60208310610a855780518252602082019150602081019050602083039250610a62565b6001836020036101000a03801982511681845116808217855250505050505090500191505060006040518083038185875af1925050503d8060008114610ae7576040519150601f19603f3d011682016040523d82523d6000602084013e610aec565b606091505b5050905080610afa57600080fd5b7f08e150dbd1c86723b974309ed03336edf576eab18d32d429e45ca343b40e21b86000809054906101000a900473ffffffffffffffffffffffffffffffffffffffff1634604051808373ffffffffffffffffffffffffffffffffffffffff1673ffffffffffffffffffffffffffffffffffffffff1681526020018281526020019250505060405180910390a1600191505090565b6000610bd083836040518060400160405280601e81526020017f536166654d6174683a207375627472616374696f6e206f766572666c6f770000815250610dee565b905092915050565b6000610c1a83836040518060400160405280601a81526020017f536166654d6174683a206469766973696f6e206279207a65726f000000000000815250610eae565b905092915050565b600080600260009054906101000a900473ffffffffffffffffffffffffffffffffffffffff1673ffffffffffffffffffffffffffffffffffffffff1663852a12e3846040518263ffffffff1660e01b815260040180828152602001915050602060405180830381600087803b158015610c9a57600080fd5b505af1158015610cae573d6000803e3d6000fd5b505050506040513d6020811015610cc457600080fd5b810190808051906020019092919050505014610d48576040517f08c379a00000000000000000000000000000000000000000000000000000000081526004018080602001828103825260148152602001807f52454445454d5f554e5355434345535346554c4c00000000000000000000000081525060200191505060405180910390fd5b919050565b600080828401905083811015610dcb576040517f08c379a000000000000000000000000000000000000000000000000000000000815260040180806020018281038252601b8152602001807f536166654d6174683a206164646974696f6e206f766572666c6f77000000000081525060200191505060405180910390fd5b8091505092915050565b610deb6001600354610d4d90919063ffffffff16565b50565b6000838311158290610e9b576040517f08c379a00000000000000000000000000000000000000000000000000000000081526004018080602001828103825283818151815260200191508051906020019080838360005b83811015610e60578082015181840152602081019050610e45565b50505050905090810190601f168015610e8d5780820380516001836020036101000a031916815260200191505b509250505060405180910390fd5b5060008385039050809150509392505050565b60008083118290610f5a576040517f08c379a00000000000000000000000000000000000000000000000000000000081526004018080602001828103825283818151815260200191508051906020019080838360005b83811015610f1f578082015181840152602081019050610f04565b50505050905090810190601f168015610f4c5780820380516001836020036101000a031916815260200191505b509250505060405180910390fd5b506000838581610f6657fe5b04905080915050939250505056fea2646970667358221220394d9fc00f9b1341c50196687054d5b3395876e528fe0df83a10ef914cf1261b64736f6c63430006000033a2646970667358221220a9e37275e1afb458fd705ef854c2071bff6e2b1fd395f289fee0594fc548d2e764736f6c63430006000033",
  "source": "pragma solidity ^0.6.0;\r\n\r\nimport \"@openzeppelin/contracts/math/SafeMath.sol\";\r\n//import \"@openzeppelin/contracts/token/ERC20/IERC20.sol\";\r\nimport \"@openzeppelin/contracts/utils/ReentrancyGuard.sol\";\r\nimport \"@openzeppelin/contracts/utils/Pausable.sol\";\r\nimport \"./PFAdmin.sol\";\r\nimport \"./PFAFactory.sol\";\r\n\r\n//import \"./PFCustodian.sol\";\r\n\r\ncontract PensionScheme is PFAFactory, ReentrancyGuard{\r\n    using SafeMath for uint256;\r\n\r\n\r\n    mapping(uint => Pension) private pensions;\r\n    \r\n    /**\r\n    * @notice instanceof Pension fund admin \r\n    */\r\n    //PFAdmin private admin;\r\n\r\n    /**\r\n    * @notice  beneficiary id counter\r\n    */\r\n    uint public pensionID;\r\n\r\n    \r\n    /**\r\n    * @notice Container/Struct for Pension info\r\n    * beneficiary - The address of the beneficiary to enjoy pension benefits\r\n    * sponsor - The address that contributes to the `beneficiary` pension benefits - Usually an employer \r\n    * retirementTime - The unix timestamp for when the `beneficiary` retires\r\n    * pAmount - The minimum amount of money the `sponsor` is required to contribute to the `beneficiary` pension\r\n    * vpAmount - The amount of money the `beneficiary` voluntarily contributes to their pension.\r\n    * remainingBalance - Keeps track of beneficiary's contribution and withdrawals\r\n    */\r\n    struct Pension {\r\n        address payable beneficiary;\r\n        address sponsor;\r\n        //address payable pCustodian\r\n        PFAdmin pfAdmin;\r\n        uint retirementTime;\r\n        // pAmount means pension amount\r\n        uint pAmount;\r\n        // vpAmount means voluntary pension amount \r\n        uint vpAmount;\r\n        uint totalContribution;\r\n        bool annuitizeWithdrawals;\r\n        bool exists;\r\n    }\r\n\r\n    /********************************* Events *********************************/\r\n    /** \r\n    * @notice Emits when a beneficiary is registered \r\n    */\r\n    event Register(uint indexed pensionID, address beneficiary, address sponsor);\r\n\r\n    /** \r\n    * @notice Emits when a deposit is made \r\n    */\r\n    event Deposit(uint indexed pensionID, address sender, uint amount, uint contributions );\r\n\r\n     /** \r\n    * @notice Emits when withdrawal Type is changed\r\n    */\r\n    event WithdrawalTypeChanged(uint pensionID);\r\n    \r\n    /**\r\n    * @notice Emits when a beneficiary makes a withdrawal\r\n    */\r\n    event Withdraw(uint indexed benefciaryID, uint amount);\r\n\r\n    /**\r\n    * @notice Emits when a beneficiary changes PFA\r\n    event NewPFA(uint indexed pensionID, address oldPFA, address newPFA)\r\n    */\r\n\r\n    /********************************* Modifiers ****************************/\r\n\r\n    /** \r\n    * @dev Throws if caller is not beneficiary \r\n    */\r\n    modifier onlyBeneficiary(uint id) {\r\n        require(msg.sender == pensions[id].beneficiary, 'CALLER_IS_NOT_BENEFICIARY');\r\n        _;\r\n    }\r\n\r\n    /**\r\n    * @dev Throws if beneficiary is not yet retired  \r\n    */\r\n    modifier isRetired(uint id){\r\n        require(now >= pensions[id].retirementTime, 'NOT_RETIRED');\r\n        _; \r\n    }\r\n    \r\n     /**\r\n    * @dev Throws if beneficiary is retired  \r\n    */\r\n    modifier isNotRetired(uint id){\r\n        require(now < pensions[id].retirementTime, 'RETIRED');\r\n        _;\r\n    }\r\n\r\n    /**\r\n    * @dev Throws if beneficiary does not exist\r\n    */\r\n    modifier pensionExists(uint id){\r\n        require(pensions[id].exists == true, \"GHOST_BENEFICIARY\");\r\n        _;\r\n    }\r\n\r\n    /**\r\n    * @dev Throws if pensions contribution doesn't matchup! \r\n    modifier checkBalance(uint id){\r\n        _;\r\n        require(pensions[id].pAmount.add(pensions[id].vpAmount) == pensions[id].totalContribution);\r\n    };\r\n    */\r\n\r\n    /************************** Functions ****************************/\r\n    constructor() public {\r\n        pensionID = 2020;\r\n    }\r\n\r\n    /**\r\n    * @notice `sponsor` registers `beneficiary` into the pension scheme\r\n    * Throws if beneficiary is zero address, the contract itself or msg.sender\r\n    * Throws if pension amount is less than zero\r\n    * @param _beneficiary The address to enjoy pension benefits\r\n    * @param rTime The unix timestamp of when beneficiary retires\r\n    * @return uint id of the beneficiary\r\n    */\r\n    function register(address payable _beneficiary, uint rTime)\r\n      public payable\r\n      returns(uint) \r\n      {\r\n        require(_beneficiary != address(0x00), 'INVALID_ADDR');\r\n        require(_beneficiary != address(this), 'INVALID_ADDR');\r\n        require(_beneficiary != msg.sender, 'SELF_REGISTER');\r\n        require(rTime >= now, 'RTIME_INVALID');\r\n        address payable admin = deployPFA(_beneficiary, address(this));\r\n        uint id = pensionID;\r\n        pensions[id] = Pension({\r\n            beneficiary: _beneficiary,\r\n            sponsor: msg.sender,\r\n            //pCustodian: pfc,\r\n            pfAdmin: PFAdmin(admin),\r\n            retirementTime: rTime,\r\n            pAmount: 0,\r\n            vpAmount: 0,\r\n            totalContribution: 0,\r\n            exists: true,\r\n            annuitizeWithdrawals: true\r\n        });\r\n        emit Register(id, _beneficiary, msg.sender);\r\n        pensionID = id.add(1);\r\n        return id;\r\n    }\r\n\r\n    /**\r\n    * @notice Allows deposits to be made by anyone into beneficiary's pension fund and \r\n    *  Transfers the amount to the beneficiary's pension fund administrator.\r\n    * @dev Throws if deposit is less than msg.value or zero\r\n    * Throws if call to pension fund admin is not successful\r\n    * @param id The pension id of the beneficiary\r\n    * @return The total contribution made to the beneficiary pension\r\n    */\r\n    function deposit(uint id) \r\n      public payable pensionExists(id)\r\n      returns(uint){\r\n        uint256 amount = msg.value;\r\n        require(amount >= 0, \"INVALID_AMT\");\r\n        if(msg.sender == pensions[id].sponsor){\r\n            \r\n            /**IERC20(DAI).transferFrom(msg.sender, address(this), amount), \"TRANSFER_FAILURE\");*/\r\n            (bool success,) = address(pensions[id].pfAdmin).call.value(amount)(abi.encodeWithSignature(\"invest()\"));\r\n            require(success, \"DEPOSIT_FAILED\");\r\n            pensions[id].pAmount = (pensions[id].pAmount).add(amount);\r\n            pensions[id].totalContribution = pensions[id].pAmount.add(pensions[id].vpAmount);\r\n            emit Deposit(id, msg.sender, amount, pensions[id].totalContribution);\r\n            return pensions[id].totalContribution;\r\n        }else {\r\n            \r\n            /**IERC20(DAI).transferFrom(msg.sender, address(this), amount), \"TRANSFER_FAILURE\");*/\r\n            (bool success,) = address(pensions[id].pfAdmin).call.value(amount)(abi.encodeWithSignature(\"invest()\"));\r\n            require(success, \"DEPOSIT_FAILED\");\r\n            pensions[id].vpAmount = (pensions[id].vpAmount).add(amount);\r\n            pensions[id].totalContribution = pensions[id].pAmount.add(pensions[id].vpAmount);\r\n            emit Deposit(id, msg.sender, amount, pensions[id].totalContribution);\r\n            return pensions[id].totalContribution;\r\n        }\r\n    }\r\n\r\n     /**\r\n    * @notice Change the type of withdrawal to lumpSum withdraw\r\n    * @dev Throws if pension id doesn't exist\r\n    * Throws if caller is beneficiary\r\n    * @param id The pension id of the beneficiary\r\n    */\r\n    function changeWithdrawalType(uint id) public pensionExists(id) onlyBeneficiary(id) {\r\n        require(pensions[id].annuitizeWithdrawals);\r\n        pensions[id].annuitizeWithdrawals = false;\r\n        emit WithdrawalTypeChanged(id);\r\n    }\r\n\r\n    /** \r\n    * @notice Enables `beneficiary` to withdraw pension after retirement\r\n    * @dev Throws if caller is not beneficiary. \r\n    * Throws if beneficiary is not retired\r\n    * Throws if pension id is invalid i.e Doesn't exist \r\n    * Throws if call is reentrant\r\n    * Throws if contract is paused\r\n    * @param id The pension id of the beneficiary\r\n    */\r\n    function withdrawPension(uint id) \r\n      public payable isRetired(id) onlyBeneficiary(id) pensionExists(id) nonReentrant()\r\n      {\r\n          require(pensions[id].totalContribution > 0, 'ZERO_CONTRIBUTIONS');\r\n          \r\n          if(pensions[id].annuitizeWithdrawals){\r\n              if (getCount(id) == 23){\r\n                  delete pensions[id];\r\n              }\r\n              (bool success,) = address(pensions[id].pfAdmin).call.value(0)(abi.encodeWithSignature('annuitizedWithdraw()'));\r\n              require(success, \"ANNUITY_WITHDRAW_FAILED\");\r\n          }else{\r\n              (bool success,) = address(pensions[id].pfAdmin).call.value(0)(abi.encodeWithSignature('lumpSumWithdraw()'));\r\n              require(success, \"LUMPSUM_WITHDRAW_FAILED\");\r\n              delete pensions[id];\r\n          }\r\n\r\n          emit Withdraw(id, msg.value);\r\n    }\r\n\r\n    /** \r\n    * @notice changes pension sponsor\r\n    * @dev Throws if pensioner(pension id) doesn't exist\r\n    * @param id The pension id of the beneficiary\r\n    * @param newSponsor new sponsor\r\n    */\r\n    function changeSponsor(uint id, address newSponsor) public pensionExists(id) onlyBeneficiary(id) {\r\n        pensions[id].sponsor = newSponsor;\r\n    }\r\n\r\n    \r\n\r\n\r\n    /********************************* view functions **********************/\r\n\r\n    /** \r\n    * @notice Returns beneficiary balances. Returns (0,0,0) if no deposit has being made.\r\n    * @dev Throws if pension id is invalid i.e Doesn't exist \r\n    * @param id The id of the beneficiary\r\n    * @return a b c\r\n    */\r\n    function balanceOf(uint id) public view \r\n        returns(\r\n            uint a, \r\n            uint b, \r\n            uint c){\r\n            a = pensions[id].pAmount;\r\n            b = pensions[id].vpAmount;\r\n            c = pensions[id].totalContribution;\r\n    }\r\n\r\n    /** \r\n    * @notice returns PFA address\r\n    * @dev Throws if pensioner(pension id) doesn't exist\r\n    * @param id The pension id of the beneficiary\r\n    * @return address\r\n    */\r\n    function getPFA(uint id) public view pensionExists(id) returns(address){\r\n        return address(pensions[id].pfAdmin);\r\n    }\r\n\r\n    /** \r\n    * @notice Checks if beneficiary is retired\r\n    * @dev Throws if pensioner(pension id) doesn't exist\r\n    * @param id The pension id of the beneficiary\r\n    * @return bool object, true=if beneficiary is retired, otherwise false\r\n    */\r\n    function checkRetired(uint id) public view pensionExists(id) returns(bool) {\r\n        Pension memory pension = pensions[id];\r\n        if(now > pension.retirementTime){\r\n            return true;\r\n        } else {\r\n            return false;\r\n        }\r\n    }\r\n\r\n    function getPensionInfo(uint id) public view returns(address beneficiary, address sponsor, uint rTime, uint totalContribution, bool exist){\r\n        beneficiary= pensions[id].beneficiary;\r\n        sponsor= pensions[id].sponsor;\r\n        rTime= pensions[id].retirementTime;\r\n        totalContribution= pensions[id].totalContribution;\r\n        exist= pensions[id].exists;\r\n        return (beneficiary, sponsor, rTime, totalContribution, exist);\r\n    }\r\n\r\n    function getCount(uint id) public view returns(uint) {\r\n        \r\n        return pensions[id].pfAdmin.getCounter();\r\n    }\r\n    \r\n\r\n    /** Recieve Ether function */\r\n    function recieve() public {}\r\n\r\n     /************************ NOT IMPLEMENTED ******************/\r\n    /**\r\n    *function changePFA(uint id, address addr) public \r\n    *  onlyBeneficiary(id){\r\n    *   pensions[id].pfAdmin = addr;\r\n    *}; \r\n    */\r\n    /** \r\n     *function _claimBenefits() public {}\r\n\r\n     *function _calculateAnnuity() public view returns(uint){\r\n     */\r\n    \r\n    \r\n}",
  "sourcePath": "C:\\Users\\User\\Documents\\consensysbt\\pension\\contracts\\PensionScheme.sol",
  "compiler": {
    "name": "solc",
    "version": "0.6.0+commit.26b70077.Emscripten.clang"
  },
  "schemaVersion": "3.2.0",
  "updatedAt": "2020-12-16T23:24:02.600Z",
  "networkType": "ethereum",
  "devdoc": {
    "methods": {
      "balanceOf(uint256)": {
        "details": "Throws if pension id is invalid i.e Doesn't exist ",
        "params": {
          "id": "The id of the beneficiary"
        },
        "returns": {
          "a": "b c"
        }
      },
      "changeSponsor(uint256,address)": {
        "details": "Throws if pensioner(pension id) doesn't exist",
        "params": {
          "id": "The pension id of the beneficiary",
          "newSponsor": "new sponsor"
        }
      },
      "changeWithdrawalType(uint256)": {
        "details": "Throws if pension id doesn't exist Throws if caller is beneficiary",
        "params": {
          "id": "The pension id of the beneficiary"
        }
      },
      "checkRetired(uint256)": {
        "details": "Throws if pensioner(pension id) doesn't exist",
        "params": {
          "id": "The pension id of the beneficiary"
        },
        "returns": {
          "_0": "bool object, true=if beneficiary is retired, otherwise false"
        }
      },
      "deposit(uint256)": {
        "details": "Throws if deposit is less than msg.value or zero Throws if call to pension fund admin is not successful",
        "params": {
          "id": "The pension id of the beneficiary"
        },
        "returns": {
          "_0": "The total contribution made to the beneficiary pension"
        }
      },
      "getPFA(uint256)": {
        "details": "Throws if pensioner(pension id) doesn't exist",
        "params": {
          "id": "The pension id of the beneficiary"
        },
        "returns": {
          "_0": "address"
        }
      },
      "register(address,uint256)": {
        "params": {
          "_beneficiary": "The address to enjoy pension benefits",
          "rTime": "The unix timestamp of when beneficiary retires"
        },
        "returns": {
          "_0": "uint id of the beneficiary"
        }
      },
      "withdrawPension(uint256)": {
        "details": "Throws if caller is not beneficiary.  Throws if beneficiary is not retired Throws if pension id is invalid i.e Doesn't exist  Throws if call is reentrant Throws if contract is paused",
        "params": {
          "id": "The pension id of the beneficiary"
        }
      }
    }
  },
  "userdoc": {
    "methods": {
      "balanceOf(uint256)": {
        "notice": "Returns beneficiary balances. Returns (0,0,0) if no deposit has being made."
      },
      "changeSponsor(uint256,address)": {
        "notice": "changes pension sponsor"
      },
      "changeWithdrawalType(uint256)": {
        "notice": "Change the type of withdrawal to lumpSum withdraw"
      },
      "checkRetired(uint256)": {
        "notice": "Checks if beneficiary is retired"
      },
      "constructor": "************************ Functions ***************************",
      "deposit(uint256)": {
        "notice": "Allows deposits to be made by anyone into beneficiary's pension fund and  Transfers the amount to the beneficiary's pension fund administrator."
      },
      "getPFA(uint256)": {
        "notice": "returns PFA address"
      },
      "recieve()": {
        "notice": "Recieve Ether function "
      },
      "register(address,uint256)": {
        "notice": "`sponsor` registers `beneficiary` into the pension scheme Throws if beneficiary is zero address, the contract itself or msg.sender Throws if pension amount is less than zero"
      },
      "withdrawPension(uint256)": {
        "notice": "Enables `beneficiary` to withdraw pension after retirement"
      }
    }
  }
}