{
  "contractName": "PFAdmin",
  "abi": [
    {
      "inputs": [
        {
          "internalType": "address payable",
          "name": "_beneficiary",
          "type": "address"
        },
        {
          "internalType": "address",
          "name": "_owner",
          "type": "address"
        }
      ],
      "stateMutability": "nonpayable",
      "type": "constructor"
    },
    {
      "anonymous": false,
      "inputs": [
        {
          "indexed": false,
          "internalType": "address",
          "name": "beneficiary",
          "type": "address"
        },
        {
          "indexed": false,
          "internalType": "uint256",
          "name": "counter",
          "type": "uint256"
        },
        {
          "indexed": false,
          "internalType": "uint256",
          "name": "amount",
          "type": "uint256"
        }
      ],
      "name": "LogAnnuity",
      "type": "event"
    },
    {
      "anonymous": false,
      "inputs": [
        {
          "indexed": false,
          "internalType": "address",
          "name": "beneficiary",
          "type": "address"
        },
        {
          "indexed": false,
          "internalType": "uint256",
          "name": "amount",
          "type": "uint256"
        }
      ],
      "name": "LogInvest",
      "type": "event"
    },
    {
      "anonymous": false,
      "inputs": [
        {
          "indexed": false,
          "internalType": "address",
          "name": "beneficiary",
          "type": "address"
        },
        {
          "indexed": false,
          "internalType": "uint256",
          "name": "amount",
          "type": "uint256"
        }
      ],
      "name": "LogLumpSumWithdraw",
      "type": "event"
    },
    {
      "anonymous": false,
      "inputs": [
        {
          "indexed": false,
          "internalType": "address",
          "name": "account",
          "type": "address"
        }
      ],
      "name": "PausedDeposit",
      "type": "event"
    },
    {
      "anonymous": false,
      "inputs": [
        {
          "indexed": false,
          "internalType": "address",
          "name": "account",
          "type": "address"
        }
      ],
      "name": "PausedWithdraw",
      "type": "event"
    },
    {
      "anonymous": false,
      "inputs": [
        {
          "indexed": false,
          "internalType": "address",
          "name": "account",
          "type": "address"
        }
      ],
      "name": "UnpausedDeposit",
      "type": "event"
    },
    {
      "anonymous": false,
      "inputs": [
        {
          "indexed": false,
          "internalType": "address",
          "name": "account",
          "type": "address"
        }
      ],
      "name": "UnpausedWithdraw",
      "type": "event"
    },
    {
      "stateMutability": "payable",
      "type": "fallback"
    },
    {
      "inputs": [],
      "name": "counter",
      "outputs": [
        {
          "internalType": "uint256",
          "name": "",
          "type": "uint256"
        }
      ],
      "stateMutability": "view",
      "type": "function"
    },
    {
      "inputs": [],
      "name": "pausedDeposit",
      "outputs": [
        {
          "internalType": "bool",
          "name": "",
          "type": "bool"
        }
      ],
      "stateMutability": "view",
      "type": "function"
    },
    {
      "inputs": [],
      "name": "pausedWithdraw",
      "outputs": [
        {
          "internalType": "bool",
          "name": "",
          "type": "bool"
        }
      ],
      "stateMutability": "view",
      "type": "function"
    },
    {
      "inputs": [],
      "name": "annuitizedWithdraw",
      "outputs": [],
      "stateMutability": "nonpayable",
      "type": "function"
    },
    {
      "inputs": [],
      "name": "lumpSumWithdraw",
      "outputs": [],
      "stateMutability": "nonpayable",
      "type": "function"
    },
    {
      "inputs": [],
      "name": "invest",
      "outputs": [
        {
          "internalType": "bool",
          "name": "",
          "type": "bool"
        }
      ],
      "stateMutability": "payable",
      "type": "function"
    },
    {
      "inputs": [],
      "name": "getBalance",
      "outputs": [
        {
          "internalType": "uint256",
          "name": "",
          "type": "uint256"
        }
      ],
      "stateMutability": "nonpayable",
      "type": "function"
    },
    {
      "inputs": [],
      "name": "getCounter",
      "outputs": [
        {
          "internalType": "uint256",
          "name": "",
          "type": "uint256"
        }
      ],
      "stateMutability": "view",
      "type": "function"
    },
    {
      "inputs": [],
      "name": "recieve",
      "outputs": [],
      "stateMutability": "nonpayable",
      "type": "function"
    },
    {
      "inputs": [],
      "name": "emergencyPauseDeposit",
      "outputs": [],
      "stateMutability": "nonpayable",
      "type": "function"
    },
    {
      "inputs": [],
      "name": "emergencyPauseWithdraw",
      "outputs": [],
      "stateMutability": "nonpayable",
      "type": "function"
    },
    {
      "inputs": [],
      "name": "emergencyUnPauseDeposit",
      "outputs": [],
      "stateMutability": "nonpayable",
      "type": "function"
    },
    {
      "inputs": [],
      "name": "emergencyUnPauseWithdraw",
      "outputs": [],
      "stateMutability": "nonpayable",
      "type": "function"
    }
  ],
  "bytecode": "0x608060405273be839b6d93e3ea47effcca1f27841c917a8794f3600260006101000a81548173ffffffffffffffffffffffffffffffffffffffff021916908373ffffffffffffffffffffffffffffffffffffffff160217905550600060035560006004556224ea00600555601760065534801561007b57600080fd5b506040516119ab3803806119ab8339818101604052604081101561009e57600080fd5b81019080805190602001909291908051906020019092919050505060008060006101000a81548160ff02191690831515021790555060008060016101000a81548160ff02191690831515021790555081600060026101000a81548173ffffffffffffffffffffffffffffffffffffffff021916908373ffffffffffffffffffffffffffffffffffffffff16021790555080600160006101000a81548173ffffffffffffffffffffffffffffffffffffffff021916908373ffffffffffffffffffffffffffffffffffffffff160217905550505061182b806101806000396000f3fe6080604052600436106100c65760003560e01c806389652f571161007f578063a9e10bf211610059578063a9e10bf2146101ec578063c889ecf014610203578063e06bacb71461021a578063e8b5e51f14610249576100c7565b806389652f571461017b5780638ada066e14610192578063a25088c6146101bd576100c7565b80630c9aea62146100c957806312065fe0146100e05780633f1e9cd01461010b57806361bc221a146101225780636792b8531461014d5780637e07544914610164576100c7565b5b005b3480156100d557600080fd5b506100de61026b565b005b3480156100ec57600080fd5b506100f56102cf565b6040518082815260200191505060405180910390f35b34801561011757600080fd5b506101206103b7565b005b34801561012e57600080fd5b5061013761041b565b6040518082815260200191505060405180910390f35b34801561015957600080fd5b50610162610421565b005b34801561017057600080fd5b506101796108a0565b005b34801561018757600080fd5b50610190610904565b005b34801561019e57600080fd5b506101a7610968565b6040518082815260200191505060405180910390f35b3480156101c957600080fd5b506101d2610972565b604051808215151515815260200191505060405180910390f35b3480156101f857600080fd5b50610201610988565b005b34801561020f57600080fd5b5061021861098a565b005b34801561022657600080fd5b5061022f610c8e565b604051808215151515815260200191505060405180910390f35b610251610ca4565b604051808215151515815260200191505060405180910390f35b3373ffffffffffffffffffffffffffffffffffffffff16600160009054906101000a900473ffffffffffffffffffffffffffffffffffffffff1673ffffffffffffffffffffffffffffffffffffffff16146102c557600080fd5b6102cd610fe7565b565b600080600260009054906101000a900473ffffffffffffffffffffffffffffffffffffffff1673ffffffffffffffffffffffffffffffffffffffff16633af9e669306040518263ffffffff1660e01b8152600401808273ffffffffffffffffffffffffffffffffffffffff1673ffffffffffffffffffffffffffffffffffffffff168152602001915050602060405180830381600087803b15801561037357600080fd5b505af1158015610387573d6000803e3d6000fd5b505050506040513d602081101561039d57600080fd5b810190808051906020019092919050505090508091505090565b3373ffffffffffffffffffffffffffffffffffffffff16600160009054906101000a900473ffffffffffffffffffffffffffffffffffffffff1673ffffffffffffffffffffffffffffffffffffffff161461041157600080fd5b6104196110f0565b565b60035481565b600060019054906101000a900460ff16156104a4576040517f08c379a00000000000000000000000000000000000000000000000000000000081526004018080602001828103825260108152602001807f5061757361626c653a207061757365640000000000000000000000000000000081525060200191505060405180910390fd5b3373ffffffffffffffffffffffffffffffffffffffff16600160009054906101000a900473ffffffffffffffffffffffffffffffffffffffff1673ffffffffffffffffffffffffffffffffffffffff1614610567576040517f08c379a000000000000000000000000000000000000000000000000000000000815260040180806020018281038252600e8152602001807f4e4f545f415554484f52495a454400000000000000000000000000000000000081525060200191505060405180910390fd5b60045442116105de576040517f08c379a000000000000000000000000000000000000000000000000000000000815260040180806020018281038252600f8152602001807f54494d454c4f434b5f414354495645000000000000000000000000000000000081525060200191505060405180910390fd5b60065460035411156105ef57600080fd5b60006105f96102cf565b9050600654600354141561074257600060029054906101000a900473ffffffffffffffffffffffffffffffffffffffff1673ffffffffffffffffffffffffffffffffffffffff166108fc829081150290604051600060405180830381858888f1935050505015801561066f573d6000803e3d6000fd5b507f89fe0d562004dd4951a2fc150e6cf008f9d263fb143ddc8717638104122e1b4a600060029054906101000a900473ffffffffffffffffffffffffffffffffffffffff1660035483604051808473ffffffffffffffffffffffffffffffffffffffff1673ffffffffffffffffffffffffffffffffffffffff168152602001838152602001828152602001935050505060405180910390a1600060029054906101000a900473ffffffffffffffffffffffffffffffffffffffff1673ffffffffffffffffffffffffffffffffffffffff16ff5b600061076d61075e6003546006546111f790919063ffffffff16565b8361124190919063ffffffff16565b90506107788161128b565b50600060029054906101000a900473ffffffffffffffffffffffffffffffffffffffff1673ffffffffffffffffffffffffffffffffffffffff166108fc829081150290604051600060405180830381858888f193505050501580156107e1573d6000803e3d6000fd5b507f89fe0d562004dd4951a2fc150e6cf008f9d263fb143ddc8717638104122e1b4a600060029054906101000a900473ffffffffffffffffffffffffffffffffffffffff1660035483604051808473ffffffffffffffffffffffffffffffffffffffff1673ffffffffffffffffffffffffffffffffffffffff168152602001838152602001828152602001935050505060405180910390a15061088f600554426113b690919063ffffffff16565b60048190555061089d61143e565b50565b3373ffffffffffffffffffffffffffffffffffffffff16600160009054906101000a900473ffffffffffffffffffffffffffffffffffffffff1673ffffffffffffffffffffffffffffffffffffffff16146108fa57600080fd5b610902611457565b565b3373ffffffffffffffffffffffffffffffffffffffff16600160009054906101000a900473ffffffffffffffffffffffffffffffffffffffff1673ffffffffffffffffffffffffffffffffffffffff161461095e57600080fd5b61096661155f565b565b6000600354905090565b60008060019054906101000a900460ff16905090565b565b600060019054906101000a900460ff1615610a0d576040517f08c379a00000000000000000000000000000000000000000000000000000000081526004018080602001828103825260108152602001807f5061757361626c653a207061757365640000000000000000000000000000000081525060200191505060405180910390fd5b3373ffffffffffffffffffffffffffffffffffffffff16600160009054906101000a900473ffffffffffffffffffffffffffffffffffffffff1673ffffffffffffffffffffffffffffffffffffffff1614610ad0576040517f08c379a000000000000000000000000000000000000000000000000000000000815260040180806020018281038252600e8152602001807f4e4f545f415554484f52495a454400000000000000000000000000000000000081525060200191505060405180910390fd5b6004544211610b47576040517f08c379a000000000000000000000000000000000000000000000000000000000815260040180806020018281038252600f8152602001807f54494d454c4f434b5f414354495645000000000000000000000000000000000081525060200191505060405180910390fd5b6000610b516102cf565b9050610b5c8161128b565b50600060029054906101000a900473ffffffffffffffffffffffffffffffffffffffff1673ffffffffffffffffffffffffffffffffffffffff166108fc829081150290604051600060405180830381858888f19350505050158015610bc5573d6000803e3d6000fd5b507fcc18a5aefb44b534dd97b9d1648ef3591afe29207e5e7cfb118903589d6b338f600060029054906101000a900473ffffffffffffffffffffffffffffffffffffffff1682604051808373ffffffffffffffffffffffffffffffffffffffff1673ffffffffffffffffffffffffffffffffffffffff1681526020018281526020019250505060405180910390a1600060029054906101000a900473ffffffffffffffffffffffffffffffffffffffff1673ffffffffffffffffffffffffffffffffffffffff16ff5b60008060009054906101000a900460ff16905090565b60008060009054906101000a900460ff1615610d28576040517f08c379a00000000000000000000000000000000000000000000000000000000081526004018080602001828103825260188152602001807f5061757361626c653a204465706f73697420706175736564000000000000000081525060200191505060405180910390fd5b3373ffffffffffffffffffffffffffffffffffffffff16600160009054906101000a900473ffffffffffffffffffffffffffffffffffffffff1673ffffffffffffffffffffffffffffffffffffffff1614610deb576040517f08c379a000000000000000000000000000000000000000000000000000000000815260040180806020018281038252600e8152602001807f4e4f545f415554484f52495a454400000000000000000000000000000000000081525060200191505060405180910390fd5b6000600260009054906101000a900473ffffffffffffffffffffffffffffffffffffffff1673ffffffffffffffffffffffffffffffffffffffff16346040516024016040516020818303038152906040527f1249c58b000000000000000000000000000000000000000000000000000000007bffffffffffffffffffffffffffffffffffffffffffffffffffffffff19166020820180517bffffffffffffffffffffffffffffffffffffffffffffffffffffffff83818316178352505050506040518082805190602001908083835b60208310610edd5780518252602082019150602081019050602083039250610eba565b6001836020036101000a03801982511681845116808217855250505050505090500191505060006040518083038185875af1925050503d8060008114610f3f576040519150601f19603f3d011682016040523d82523d6000602084013e610f44565b606091505b5050905080610f5257600080fd5b7f08e150dbd1c86723b974309ed03336edf576eab18d32d429e45ca343b40e21b8600060029054906101000a900473ffffffffffffffffffffffffffffffffffffffff1634604051808373ffffffffffffffffffffffffffffffffffffffff1673ffffffffffffffffffffffffffffffffffffffff1681526020018281526020019250505060405180910390a1600191505090565b600060019054906101000a900460ff161561106a576040517f08c379a00000000000000000000000000000000000000000000000000000000081526004018080602001828103825260108152602001807f5061757361626c653a207061757365640000000000000000000000000000000081525060200191505060405180910390fd5b60016000806101000a81548160ff0219169083151502179055507f55d072119865a1f2ccbf55db67d7a78b176794cbfd3546d888090685b88a16886110ad611667565b604051808273ffffffffffffffffffffffffffffffffffffffff1673ffffffffffffffffffffffffffffffffffffffff16815260200191505060405180910390a1565b6000809054906101000a900460ff16611171576040517f08c379a000000000000000000000000000000000000000000000000000000000815260040180806020018281038252601c8152602001807f5061757361626c653a204465706f736974206e6f74207061757365640000000081525060200191505060405180910390fd5b60008060006101000a81548160ff0219169083151502179055507f431857afdb66920f33099b7531738ef4c462ba486c7c39b3b76a1c48ad045e886111b4611667565b604051808273ffffffffffffffffffffffffffffffffffffffff1673ffffffffffffffffffffffffffffffffffffffff16815260200191505060405180910390a1565b600061123983836040518060400160405280601e81526020017f536166654d6174683a207375627472616374696f6e206f766572666c6f77000081525061166f565b905092915050565b600061128383836040518060400160405280601a81526020017f536166654d6174683a206469766973696f6e206279207a65726f00000000000081525061172f565b905092915050565b600080600260009054906101000a900473ffffffffffffffffffffffffffffffffffffffff1673ffffffffffffffffffffffffffffffffffffffff1663852a12e3846040518263ffffffff1660e01b815260040180828152602001915050602060405180830381600087803b15801561130357600080fd5b505af1158015611317573d6000803e3d6000fd5b505050506040513d602081101561132d57600080fd5b8101908080519060200190929190505050146113b1576040517f08c379a00000000000000000000000000000000000000000000000000000000081526004018080602001828103825260148152602001807f52454445454d5f554e5355434345535346554c4c00000000000000000000000081525060200191505060405180910390fd5b919050565b600080828401905083811015611434576040517f08c379a000000000000000000000000000000000000000000000000000000000815260040180806020018281038252601b8152602001807f536166654d6174683a206164646974696f6e206f766572666c6f77000000000081525060200191505060405180910390fd5b8091505092915050565b61145460016003546113b690919063ffffffff16565b50565b600060019054906101000a900460ff166114d9576040517f08c379a00000000000000000000000000000000000000000000000000000000081526004018080602001828103825260148152602001807f5061757361626c653a206e6f742070617573656400000000000000000000000081525060200191505060405180910390fd5b60008060016101000a81548160ff0219169083151502179055507fa560e2a1260b0da81557bf214910029abc1ef773dc29f6560a81bab36bb69ba461151c611667565b604051808273ffffffffffffffffffffffffffffffffffffffff1673ffffffffffffffffffffffffffffffffffffffff16815260200191505060405180910390a1565b6000809054906101000a900460ff16156115e1576040517f08c379a00000000000000000000000000000000000000000000000000000000081526004018080602001828103825260188152602001807f5061757361626c653a204465706f73697420706175736564000000000000000081525060200191505060405180910390fd5b60016000806101000a81548160ff0219169083151502179055507faa27853e4d07821ee42110a94d5f4456886102d7f4e931ce3dbc19dc10a964b7611624611667565b604051808273ffffffffffffffffffffffffffffffffffffffff1673ffffffffffffffffffffffffffffffffffffffff16815260200191505060405180910390a1565b600033905090565b600083831115829061171c576040517f08c379a00000000000000000000000000000000000000000000000000000000081526004018080602001828103825283818151815260200191508051906020019080838360005b838110156116e15780820151818401526020810190506116c6565b50505050905090810190601f16801561170e5780820380516001836020036101000a031916815260200191505b509250505060405180910390fd5b5060008385039050809150509392505050565b600080831182906117db576040517f08c379a00000000000000000000000000000000000000000000000000000000081526004018080602001828103825283818151815260200191508051906020019080838360005b838110156117a0578082015181840152602081019050611785565b50505050905090810190601f1680156117cd5780820380516001836020036101000a031916815260200191505b509250505060405180910390fd5b5060008385816117e757fe5b04905080915050939250505056fea26469706673582212205987e682174d65b7dde7317207d2c36e3ee2eb0e6316305eb0cb70e6f32641a264736f6c63430006000033",
  "source": "pragma solidity ^0.6.0;\r\n\r\nimport \"@openzeppelin/contracts/utils/ReentrancyGuard.sol\";\r\n//import \"@openzeppelin/contracts/utils/Pausable.sol\";\r\n//import \"@openzeppelin/contracts/access/Ownable.sol\";\r\nimport \"@openzeppelin/contracts/math/SafeMath.sol\";\r\nimport \"./interface/cToken.sol\";\r\nimport \"./Pausable.sol\";\r\n\r\ncontract PFAdmin is Pausable{\r\n    using SafeMath for uint;\r\n\r\n    /**\r\n    * @notice `beneficiary` - address to transfer funds to\r\n    */\r\n    address payable beneficiary;\r\n    /**\r\n    * @notice PFAdmin Owner(PensionScheme) \r\n    */\r\n    address owner;\r\n    /**\r\n    * @notice compound token address on the Ropsten testnet\r\n    */\r\n    cToken c = cToken(0xBe839b6D93E3eA47eFFcCA1F27841C917a8794f3);\r\n    /**\r\n    * @notice counter to track payment of annuity \r\n    */\r\n    uint public counter = 0;\r\n    /**\r\n    * @notice `time`- the least time withdrawal can take place \r\n    */\r\n    uint private time = 0;\r\n     /**\r\n    * @notice timelock period for withdrawals \r\n    */\r\n    uint private duration = 28 days;\r\n    /**\r\n    * @notice Maximum number of time annuity is paid\r\n    */\r\n    uint private withdrawalLimit = 23;\r\n   \r\n\r\n    /********************************* Events *********************************/\r\n    /** \r\n    * @notice Emits when annuity is paid to beneficiary\r\n    */\r\n    event LogAnnuity(address beneficiary, uint counter, uint amount);\r\n\r\n    /** \r\n    * @notice Emits when LumpSum is paid to beneficiary \r\n    */\r\n    event LogLumpSumWithdraw(address beneficiary,  uint amount);\r\n    /** \r\n    * @notice Emits when the Invest function is called\r\n    */\r\n    event LogInvest(address beneficiary, uint amount);\r\n\r\n\r\n    /******************** Functions **********************/\r\n    constructor(address payable _beneficiary, address _owner) public {\r\n        beneficiary = _beneficiary;\r\n        owner = _owner;\r\n    }\r\n\r\n\r\n    /**\r\n    * @notice function to increment counter\r\n    */\r\n    function incrementCounter() private {\r\n        counter.add(1);\r\n    }\r\n    /**\r\n    * @notice pays annuity to beneficiary and selfdestructs if withdrawalLimit is reached. \r\n    *       Also Increments counter and resets withdrawal time.\r\n    * @dev Throws if not withrawal period.\r\n    * Throws if msg.sender not owner.\r\n    */\r\n\r\n    function annuitizedWithdraw() public whenWithdrawNotPaused(){\r\n        require(owner == msg.sender,'NOT_AUTHORIZED');\r\n        require(now > time, 'TIMELOCK_ACTIVE' );\r\n        require(counter <= withdrawalLimit );\r\n        uint totalBalance = getBalance();\r\n        if (counter == withdrawalLimit){\r\n            beneficiary.transfer(totalBalance);\r\n            emit LogAnnuity(beneficiary, counter, totalBalance);\r\n            selfdestruct(beneficiary);\r\n        }else{\r\n            uint balance = totalBalance.div(withdrawalLimit.sub(counter));\r\n            redeemCEth(balance);\r\n            beneficiary.transfer(balance);\r\n            emit LogAnnuity(beneficiary, counter, balance); \r\n        }\r\n        time = now.add(duration);\r\n        incrementCounter();\r\n    }\r\n\r\n    /**\r\n    * @notice pays lump sum to beneficiary and selfdestructs\r\n    * @dev Throws if msg.sender not owner.\r\n    * Throws if not withrawal period.\r\n    */\r\n    function lumpSumWithdraw() public whenWithdrawNotPaused(){\r\n        require(owner == msg.sender, 'NOT_AUTHORIZED');\r\n        require(now > time, 'TIMELOCK_ACTIVE');\r\n        uint totalBalance = getBalance();\r\n        redeemCEth(totalBalance); \r\n        beneficiary.transfer(totalBalance);\r\n        emit LogLumpSumWithdraw(beneficiary, totalBalance);\r\n        selfdestruct(beneficiary);\r\n    }\r\n\r\n    /**\r\n    * @notice mints Compound Token\r\n    * Throws if msg.sender not owner.\r\n    * Throws if not withrawal period.\r\n    * @return bool \r\n    */\r\n    function invest() public payable  whenDepositNotPaused() returns(bool) {\r\n        require(owner == msg.sender, 'NOT_AUTHORIZED');\r\n        (bool success,) = address(c).call.value(msg.value)(abi.encodeWithSignature(\"mint()\"));\r\n        require(success);\r\n        emit LogInvest(beneficiary, msg.value);\r\n        return true;\r\n    }\r\n\r\n    /**\r\n    * @notice Compound Token function to redeem underlying asset \r\n    * @return bool\r\n    */    \r\n    function redeemCEth(\r\n        uint256 amount\r\n    ) private returns (bool) {\r\n        // Retrieve your asset based on an amount of the asset\r\n        require(c.redeemUnderlying(amount) == 0, \"REDEEM_UNSUCCESSFULL\");\r\n\r\n    }\r\n\r\n\r\n    /**\r\n    * @notice Gets balance of underlying asset\r\n    * @return uint\r\n    */\r\n    function getBalance() public returns(uint){\r\n\r\n        //uint balanceERC20 = address(c).balanceOf(address(this));\r\n        //uint balance = balanceERC20.mul(address(c).exchangeRateCurrent());\r\n        uint balance = c.balanceOfUnderlying(address(this));\r\n        return balance;\r\n        }\r\n    \r\n    /*************************************** View Function ******************************/\r\n    function getCounter() external view returns(uint){\r\n        return counter;\r\n    }\r\n    \r\n        \r\n    \r\n    /************************************ Fallback Function *****************************/\r\n    // This is needed to receive ETH when calling `redeemCEth`\r\n    fallback () external payable {\r\n    }\r\n\r\n    function recieve() public {}\r\n\r\n     /**********************************Emergency Functions ****************************/\r\n    function emergencyPauseDeposit() external {\r\n        require(owner == msg.sender);\r\n        pauseDeposit();\r\n    }\r\n    function emergencyPauseWithdraw() external {\r\n        require(owner == msg.sender);\r\n        pauseWithdraw();\r\n    }\r\n    function emergencyUnPauseDeposit() external {\r\n        require(owner == msg.sender);\r\n        unpauseDeposit();\r\n    }\r\n    function emergencyUnPauseWithdraw() external {\r\n        require(owner == msg.sender);\r\n        unpauseWithdraw();\r\n    }\r\n\r\n}\r\n\r\n\r\n",
  "sourcePath": "C:\\Users\\User\\Documents\\consensysbt\\pension\\contracts\\PFAdmin.sol",
  "compiler": {
    "name": "solc",
    "version": "0.6.0+commit.26b70077.Emscripten.clang"
  },
  "schemaVersion": "3.2.0",
  "updatedAt": "2020-12-17T10:06:38.411Z",
  "devdoc": {
    "methods": {
      "annuitizedWithdraw()": {
        "details": "Throws if not withrawal period. Throws if msg.sender not owner."
      },
      "lumpSumWithdraw()": {
        "details": "Throws if msg.sender not owner. Throws if not withrawal period."
      },
      "pausedDeposit()": {
        "details": "Returns true if the contract is paused, and false otherwise."
      },
      "pausedWithdraw()": {
        "details": "Returns true if the contract is paused, and false otherwise."
      }
    }
  },
  "userdoc": {
    "methods": {
      "annuitizedWithdraw()": {
        "notice": "pays annuity to beneficiary and selfdestructs if withdrawalLimit is reached.       Also Increments counter and resets withdrawal time."
      },
      "constructor": "****************** Functions *********************",
      "emergencyPauseDeposit()": {
        "notice": "********************************Emergency Functions ***************************"
      },
      "getBalance()": {
        "notice": "Gets balance of underlying asset"
      },
      "getCounter()": {
        "notice": "************************************* View Function *****************************"
      },
      "invest()": {
        "notice": "mints Compound Token Throws if msg.sender not owner. Throws if not withrawal period."
      },
      "lumpSumWithdraw()": {
        "notice": "pays lump sum to beneficiary and selfdestructs"
      }
    }
  }
}