{
  "contractName": "PFAFactory",
  "abi": [
    {
      "inputs": [],
      "stateMutability": "nonpayable",
      "type": "constructor"
    },
    {
      "inputs": [
        {
          "internalType": "address payable",
          "name": "_beneficiary",
          "type": "address"
        },
        {
          "internalType": "address",
          "name": "_owner",
          "type": "address"
        }
      ],
      "name": "deployPFA",
      "outputs": [
        {
          "internalType": "address payable",
          "name": "",
          "type": "address"
        }
      ],
      "stateMutability": "nonpayable",
      "type": "function"
    }
  ],
  "bytecode": "0x608060405234801561001057600080fd5b50611312806100206000396000f3fe608060405234801561001057600080fd5b506004361061002b5760003560e01c8063d0f2bf5614610030575b600080fd5b6100926004803603604081101561004657600080fd5b81019080803573ffffffffffffffffffffffffffffffffffffffff169060200190929190803573ffffffffffffffffffffffffffffffffffffffff1690602001909291905050506100d4565b604051808273ffffffffffffffffffffffffffffffffffffffff1673ffffffffffffffffffffffffffffffffffffffff16815260200191505060405180910390f35b60008083836040516100e5906101da565b808373ffffffffffffffffffffffffffffffffffffffff1673ffffffffffffffffffffffffffffffffffffffff1681526020018273ffffffffffffffffffffffffffffffffffffffff1673ffffffffffffffffffffffffffffffffffffffff16815260200192505050604051809103906000f08015801561016a573d6000803e3d6000fd5b5090506000819080600181540180825580915050600190039060005260206000200160009091909190916101000a81548173ffffffffffffffffffffffffffffffffffffffff021916908373ffffffffffffffffffffffffffffffffffffffff1602179055508091505092915050565b6110f5806101e88339019056fe608060405273be839b6d93e3ea47effcca1f27841c917a8794f3600260006101000a81548173ffffffffffffffffffffffffffffffffffffffff021916908373ffffffffffffffffffffffffffffffffffffffff160217905550600060035560006004556224ea00600555601760065534801561007b57600080fd5b506040516110f53803806110f58339818101604052604081101561009e57600080fd5b810190808051906020019092919080519060200190929190505050816000806101000a81548173ffffffffffffffffffffffffffffffffffffffff021916908373ffffffffffffffffffffffffffffffffffffffff16021790555080600160006101000a81548173ffffffffffffffffffffffffffffffffffffffff021916908373ffffffffffffffffffffffffffffffffffffffff1602179055505050610faa8061014b6000396000f3fe6080604052600436106100745760003560e01c80638ada066e1161004e5780638ada066e146100e4578063a9e10bf21461010f578063c889ecf014610126578063e8b5e51f1461013d57610075565b806312065fe01461007757806361bc221a146100a25780636792b853146100cd57610075565b5b005b34801561008357600080fd5b5061008c61015f565b6040518082815260200191505060405180910390f35b3480156100ae57600080fd5b506100b7610247565b6040518082815260200191505060405180910390f35b3480156100d957600080fd5b506100e261024d565b005b3480156100f057600080fd5b506100f9610644565b6040518082815260200191505060405180910390f35b34801561011b57600080fd5b5061012461064e565b005b34801561013257600080fd5b5061013b610650565b005b6101456108ce565b604051808215151515815260200191505060405180910390f35b600080600260009054906101000a900473ffffffffffffffffffffffffffffffffffffffff1673ffffffffffffffffffffffffffffffffffffffff16633af9e669306040518263ffffffff1660e01b8152600401808273ffffffffffffffffffffffffffffffffffffffff1673ffffffffffffffffffffffffffffffffffffffff168152602001915050602060405180830381600087803b15801561020357600080fd5b505af1158015610217573d6000803e3d6000fd5b505050506040513d602081101561022d57600080fd5b810190808051906020019092919050505090508091505090565b60035481565b3373ffffffffffffffffffffffffffffffffffffffff16600160009054906101000a900473ffffffffffffffffffffffffffffffffffffffff1673ffffffffffffffffffffffffffffffffffffffff1614610310576040517f08c379a000000000000000000000000000000000000000000000000000000000815260040180806020018281038252600e8152602001807f4e4f545f415554484f52495a454400000000000000000000000000000000000081525060200191505060405180910390fd5b6004544211610387576040517f08c379a000000000000000000000000000000000000000000000000000000000815260040180806020018281038252600f8152602001807f54494d454c4f434b5f414354495645000000000000000000000000000000000081525060200191505060405180910390fd5b600654600354111561039857600080fd5b60006103a261015f565b905060065460035414156104e8576000809054906101000a900473ffffffffffffffffffffffffffffffffffffffff1673ffffffffffffffffffffffffffffffffffffffff166108fc829081150290604051600060405180830381858888f19350505050158015610417573d6000803e3d6000fd5b507f89fe0d562004dd4951a2fc150e6cf008f9d263fb143ddc8717638104122e1b4a6000809054906101000a900473ffffffffffffffffffffffffffffffffffffffff1660035483604051808473ffffffffffffffffffffffffffffffffffffffff1673ffffffffffffffffffffffffffffffffffffffff168152602001838152602001828152602001935050505060405180910390a16000809054906101000a900473ffffffffffffffffffffffffffffffffffffffff1673ffffffffffffffffffffffffffffffffffffffff16ff5b6000610513610504600354600654610b8e90919063ffffffff16565b83610bd890919063ffffffff16565b905061051e81610c22565b506000809054906101000a900473ffffffffffffffffffffffffffffffffffffffff1673ffffffffffffffffffffffffffffffffffffffff166108fc829081150290604051600060405180830381858888f19350505050158015610586573d6000803e3d6000fd5b507f89fe0d562004dd4951a2fc150e6cf008f9d263fb143ddc8717638104122e1b4a6000809054906101000a900473ffffffffffffffffffffffffffffffffffffffff1660035483604051808473ffffffffffffffffffffffffffffffffffffffff1673ffffffffffffffffffffffffffffffffffffffff168152602001838152602001828152602001935050505060405180910390a15061063360055442610d4d90919063ffffffff16565b600481905550610641610dd5565b50565b6000600354905090565b565b3373ffffffffffffffffffffffffffffffffffffffff16600160009054906101000a900473ffffffffffffffffffffffffffffffffffffffff1673ffffffffffffffffffffffffffffffffffffffff1614610713576040517f08c379a000000000000000000000000000000000000000000000000000000000815260040180806020018281038252600e8152602001807f4e4f545f415554484f52495a454400000000000000000000000000000000000081525060200191505060405180910390fd5b600454421161078a576040517f08c379a000000000000000000000000000000000000000000000000000000000815260040180806020018281038252600f8152602001807f54494d454c4f434b5f414354495645000000000000000000000000000000000081525060200191505060405180910390fd5b600061079461015f565b905061079f81610c22565b506000809054906101000a900473ffffffffffffffffffffffffffffffffffffffff1673ffffffffffffffffffffffffffffffffffffffff166108fc829081150290604051600060405180830381858888f19350505050158015610807573d6000803e3d6000fd5b507fcc18a5aefb44b534dd97b9d1648ef3591afe29207e5e7cfb118903589d6b338f6000809054906101000a900473ffffffffffffffffffffffffffffffffffffffff1682604051808373ffffffffffffffffffffffffffffffffffffffff1673ffffffffffffffffffffffffffffffffffffffff1681526020018281526020019250505060405180910390a16000809054906101000a900473ffffffffffffffffffffffffffffffffffffffff1673ffffffffffffffffffffffffffffffffffffffff16ff5b60003373ffffffffffffffffffffffffffffffffffffffff16600160009054906101000a900473ffffffffffffffffffffffffffffffffffffffff1673ffffffffffffffffffffffffffffffffffffffff1614610993576040517f08c379a000000000000000000000000000000000000000000000000000000000815260040180806020018281038252600e8152602001807f4e4f545f415554484f52495a454400000000000000000000000000000000000081525060200191505060405180910390fd5b6000600260009054906101000a900473ffffffffffffffffffffffffffffffffffffffff1673ffffffffffffffffffffffffffffffffffffffff16346040516024016040516020818303038152906040527f1249c58b000000000000000000000000000000000000000000000000000000007bffffffffffffffffffffffffffffffffffffffffffffffffffffffff19166020820180517bffffffffffffffffffffffffffffffffffffffffffffffffffffffff83818316178352505050506040518082805190602001908083835b60208310610a855780518252602082019150602081019050602083039250610a62565b6001836020036101000a03801982511681845116808217855250505050505090500191505060006040518083038185875af1925050503d8060008114610ae7576040519150601f19603f3d011682016040523d82523d6000602084013e610aec565b606091505b5050905080610afa57600080fd5b7f08e150dbd1c86723b974309ed03336edf576eab18d32d429e45ca343b40e21b86000809054906101000a900473ffffffffffffffffffffffffffffffffffffffff1634604051808373ffffffffffffffffffffffffffffffffffffffff1673ffffffffffffffffffffffffffffffffffffffff1681526020018281526020019250505060405180910390a1600191505090565b6000610bd083836040518060400160405280601e81526020017f536166654d6174683a207375627472616374696f6e206f766572666c6f770000815250610dee565b905092915050565b6000610c1a83836040518060400160405280601a81526020017f536166654d6174683a206469766973696f6e206279207a65726f000000000000815250610eae565b905092915050565b600080600260009054906101000a900473ffffffffffffffffffffffffffffffffffffffff1673ffffffffffffffffffffffffffffffffffffffff1663852a12e3846040518263ffffffff1660e01b815260040180828152602001915050602060405180830381600087803b158015610c9a57600080fd5b505af1158015610cae573d6000803e3d6000fd5b505050506040513d6020811015610cc457600080fd5b810190808051906020019092919050505014610d48576040517f08c379a00000000000000000000000000000000000000000000000000000000081526004018080602001828103825260148152602001807f52454445454d5f554e5355434345535346554c4c00000000000000000000000081525060200191505060405180910390fd5b919050565b600080828401905083811015610dcb576040517f08c379a000000000000000000000000000000000000000000000000000000000815260040180806020018281038252601b8152602001807f536166654d6174683a206164646974696f6e206f766572666c6f77000000000081525060200191505060405180910390fd5b8091505092915050565b610deb6001600354610d4d90919063ffffffff16565b50565b6000838311158290610e9b576040517f08c379a00000000000000000000000000000000000000000000000000000000081526004018080602001828103825283818151815260200191508051906020019080838360005b83811015610e60578082015181840152602081019050610e45565b50505050905090810190601f168015610e8d5780820380516001836020036101000a031916815260200191505b509250505060405180910390fd5b5060008385039050809150509392505050565b60008083118290610f5a576040517f08c379a00000000000000000000000000000000000000000000000000000000081526004018080602001828103825283818151815260200191508051906020019080838360005b83811015610f1f578082015181840152602081019050610f04565b50505050905090810190601f168015610f4c5780820380516001836020036101000a031916815260200191505b509250505060405180910390fd5b506000838581610f6657fe5b04905080915050939250505056fea2646970667358221220394d9fc00f9b1341c50196687054d5b3395876e528fe0df83a10ef914cf1261b64736f6c63430006000033a26469706673582212204a22fe18522c888d2aea896f75abbf51613b681f4adf34939a3e5b3560637ded64736f6c63430006000033",
  "source": "pragma solidity ^0.6.0;\r\n\r\nimport \"./PFAdmin.sol\";\r\ncontract PFAFactory{\r\n\r\n    address[] private  addr;\r\n    constructor() public {\r\n    }\r\n\r\n    function deployPFA(address payable _beneficiary, address _owner) public returns(address payable) {\r\n        PFAdmin pfa = new PFAdmin(_beneficiary, _owner);\r\n        addr.push(address(pfa));\r\n        return address(pfa);\r\n    }\r\n}\r\n",
  "sourcePath": "C:\\Users\\User\\Documents\\consensysbt\\pension\\contracts\\PFAFactory.sol",
  "compiler": {
    "name": "solc",
    "version": "0.6.0+commit.26b70077.Emscripten.clang"
  },
  "schemaVersion": "3.2.0",
  "updatedAt": "2020-12-16T23:22:10.412Z",
  "devdoc": {
    "methods": {}
  },
  "userdoc": {
    "methods": {}
  }
}